{
    "contractName": "TraditionerativeArtFactory",
    "abi": [
        {
            "inputs": [],
            "stateMutability": "nonpayable",
            "type": "constructor"
        },
        {
            "anonymous": false,
            "inputs": [
                {
                    "indexed": true,
                    "internalType": "address",
                    "name": "owner",
                    "type": "address"
                },
                {
                    "indexed": true,
                    "internalType": "address",
                    "name": "approved",
                    "type": "address"
                },
                {
                    "indexed": true,
                    "internalType": "uint256",
                    "name": "tokenId",
                    "type": "uint256"
                }
            ],
            "name": "Approval",
            "type": "event"
        },
        {
            "anonymous": false,
            "inputs": [
                {
                    "indexed": true,
                    "internalType": "address",
                    "name": "owner",
                    "type": "address"
                },
                {
                    "indexed": true,
                    "internalType": "address",
                    "name": "operator",
                    "type": "address"
                },
                {
                    "indexed": false,
                    "internalType": "bool",
                    "name": "approved",
                    "type": "bool"
                }
            ],
            "name": "ApprovalForAll",
            "type": "event"
        },
        {
            "anonymous": false,
            "inputs": [
                {
                    "indexed": false,
                    "internalType": "uint256",
                    "name": "tgaId",
                    "type": "uint256"
                },
                {
                    "indexed": false,
                    "internalType": "uint256",
                    "name": "dna",
                    "type": "uint256"
                }
            ],
            "name": "NewTga",
            "type": "event"
        },
        {
            "anonymous": false,
            "inputs": [
                {
                    "indexed": true,
                    "internalType": "address",
                    "name": "previousOwner",
                    "type": "address"
                },
                {
                    "indexed": true,
                    "internalType": "address",
                    "name": "newOwner",
                    "type": "address"
                }
            ],
            "name": "OwnershipTransferred",
            "type": "event"
        },
        {
            "anonymous": false,
            "inputs": [
                {
                    "indexed": true,
                    "internalType": "address",
                    "name": "from",
                    "type": "address"
                },
                {
                    "indexed": true,
                    "internalType": "address",
                    "name": "to",
                    "type": "address"
                },
                {
                    "indexed": true,
                    "internalType": "uint256",
                    "name": "tokenId",
                    "type": "uint256"
                }
            ],
            "name": "Transfer",
            "type": "event"
        },
        {
            "anonymous": false,
            "inputs": [
                {
                    "indexed": false,
                    "internalType": "address",
                    "name": "_address",
                    "type": "address"
                },
                {
                    "indexed": false,
                    "internalType": "uint256",
                    "name": "amount",
                    "type": "uint256"
                }
            ],
            "name": "withdrawn",
            "type": "event"
        },
        {
            "inputs": [
                {
                    "internalType": "address",
                    "name": "to",
                    "type": "address"
                },
                {
                    "internalType": "uint256",
                    "name": "tokenId",
                    "type": "uint256"
                }
            ],
            "name": "approve",
            "outputs": [],
            "stateMutability": "nonpayable",
            "type": "function"
        },
        {
            "inputs": [
                {
                    "internalType": "address",
                    "name": "owner",
                    "type": "address"
                }
            ],
            "name": "balanceOf",
            "outputs": [
                {
                    "internalType": "uint256",
                    "name": "",
                    "type": "uint256"
                }
            ],
            "stateMutability": "view",
            "type": "function"
        },
        {
            "inputs": [],
            "name": "bp",
            "outputs": [
                {
                    "internalType": "uint256",
                    "name": "",
                    "type": "uint256"
                }
            ],
            "stateMutability": "view",
            "type": "function"
        },
        {
            "inputs": [
                {
                    "internalType": "uint256",
                    "name": "tokenId",
                    "type": "uint256"
                }
            ],
            "name": "getApproved",
            "outputs": [
                {
                    "internalType": "address",
                    "name": "",
                    "type": "address"
                }
            ],
            "stateMutability": "view",
            "type": "function"
        },
        {
            "inputs": [
                {
                    "internalType": "address",
                    "name": "owner",
                    "type": "address"
                },
                {
                    "internalType": "address",
                    "name": "operator",
                    "type": "address"
                }
            ],
            "name": "isApprovedForAll",
            "outputs": [
                {
                    "internalType": "bool",
                    "name": "",
                    "type": "bool"
                }
            ],
            "stateMutability": "view",
            "type": "function"
        },
        {
            "inputs": [],
            "name": "name",
            "outputs": [
                {
                    "internalType": "string",
                    "name": "",
                    "type": "string"
                }
            ],
            "stateMutability": "view",
            "type": "function"
        },
        {
            "inputs": [],
            "name": "owner",
            "outputs": [
                {
                    "internalType": "address",
                    "name": "",
                    "type": "address"
                }
            ],
            "stateMutability": "view",
            "type": "function"
        },
        {
            "inputs": [
                {
                    "internalType": "uint256",
                    "name": "tokenId",
                    "type": "uint256"
                }
            ],
            "name": "ownerOf",
            "outputs": [
                {
                    "internalType": "address",
                    "name": "",
                    "type": "address"
                }
            ],
            "stateMutability": "view",
            "type": "function"
        },
        {
            "inputs": [],
            "name": "renounceOwnership",
            "outputs": [],
            "stateMutability": "nonpayable",
            "type": "function"
        },
        {
            "inputs": [
                {
                    "internalType": "uint256",
                    "name": "tokenId",
                    "type": "uint256"
                },
                {
                    "internalType": "uint256",
                    "name": "salePrice",
                    "type": "uint256"
                }
            ],
            "name": "royaltyInfo",
            "outputs": [
                {
                    "internalType": "address",
                    "name": "receiver",
                    "type": "address"
                },
                {
                    "internalType": "uint256",
                    "name": "royaltyAmount",
                    "type": "uint256"
                }
            ],
            "stateMutability": "view",
            "type": "function"
        },
        {
            "inputs": [
                {
                    "internalType": "address",
                    "name": "_to",
                    "type": "address"
                }
            ],
            "name": "safeMintTga",
            "outputs": [],
            "stateMutability": "payable",
            "type": "function"
        },
        {
            "inputs": [
                {
                    "internalType": "address",
                    "name": "from",
                    "type": "address"
                },
                {
                    "internalType": "address",
                    "name": "to",
                    "type": "address"
                },
                {
                    "internalType": "uint256",
                    "name": "tokenId",
                    "type": "uint256"
                }
            ],
            "name": "safeTransferFrom",
            "outputs": [],
            "stateMutability": "nonpayable",
            "type": "function"
        },
        {
            "inputs": [
                {
                    "internalType": "address",
                    "name": "from",
                    "type": "address"
                },
                {
                    "internalType": "address",
                    "name": "to",
                    "type": "address"
                },
                {
                    "internalType": "uint256",
                    "name": "tokenId",
                    "type": "uint256"
                },
                {
                    "internalType": "bytes",
                    "name": "_data",
                    "type": "bytes"
                }
            ],
            "name": "safeTransferFrom",
            "outputs": [],
            "stateMutability": "nonpayable",
            "type": "function"
        },
        {
            "inputs": [
                {
                    "internalType": "address",
                    "name": "operator",
                    "type": "address"
                },
                {
                    "internalType": "bool",
                    "name": "approved",
                    "type": "bool"
                }
            ],
            "name": "setApprovalForAll",
            "outputs": [],
            "stateMutability": "nonpayable",
            "type": "function"
        },
        {
            "inputs": [
                {
                    "internalType": "bytes4",
                    "name": "interfaceId",
                    "type": "bytes4"
                }
            ],
            "name": "supportsInterface",
            "outputs": [
                {
                    "internalType": "bool",
                    "name": "",
                    "type": "bool"
                }
            ],
            "stateMutability": "view",
            "type": "function"
        },
        {
            "inputs": [],
            "name": "symbol",
            "outputs": [
                {
                    "internalType": "string",
                    "name": "",
                    "type": "string"
                }
            ],
            "stateMutability": "view",
            "type": "function"
        },
        {
            "inputs": [
                {
                    "internalType": "uint256",
                    "name": "tokenId",
                    "type": "uint256"
                }
            ],
            "name": "tokenURI",
            "outputs": [
                {
                    "internalType": "string",
                    "name": "",
                    "type": "string"
                }
            ],
            "stateMutability": "view",
            "type": "function"
        },
        {
            "inputs": [
                {
                    "internalType": "address",
                    "name": "from",
                    "type": "address"
                },
                {
                    "internalType": "address",
                    "name": "to",
                    "type": "address"
                },
                {
                    "internalType": "uint256",
                    "name": "tokenId",
                    "type": "uint256"
                }
            ],
            "name": "transferFrom",
            "outputs": [],
            "stateMutability": "nonpayable",
            "type": "function"
        },
        {
            "inputs": [
                {
                    "internalType": "address",
                    "name": "newOwner",
                    "type": "address"
                }
            ],
            "name": "transferOwnership",
            "outputs": [],
            "stateMutability": "nonpayable",
            "type": "function"
        },
        {
            "inputs": [
                {
                    "internalType": "address payable",
                    "name": "_address",
                    "type": "address"
                }
            ],
            "name": "withdraw",
            "outputs": [],
            "stateMutability": "nonpayable",
            "type": "function"
        }
    ],
    "bytecode": "6080604052600860078190556200001890600a62000212565b6008556101f46009553480156200002e57600080fd5b506040518060400160405280601381526020017f547261646974696f6e65726174697665417274000000000000000000000000008152506040518060400160405280600381526020016254474160e81b8152506200009b62000095620000cf60201b60201c565b620000d3565b8151620000b090600190602085019062000123565b508051620000c690600290602084019062000123565b50505062000330565b3390565b600080546001600160a01b038381166001600160a01b0319831681178455604051919092169283917f8be0079c531659141344cd1fd0a4f28419497f9722a3daafe3b4186f6b6457e09190a35050565b8280546200013190620002dd565b90600052602060002090601f016020900481019282620001555760008555620001a0565b82601f106200017057805160ff1916838001178555620001a0565b82800160010185558215620001a0579182015b82811115620001a057825182559160200191906001019062000183565b50620001ae929150620001b2565b5090565b5b80821115620001ae5760008155600101620001b3565b600181815b808511156200020a578160001904821115620001ee57620001ee6200031a565b80851615620001fc57918102915b93841c9390800290620001ce565b509250929050565b600062000220838362000227565b9392505050565b6000826200023857506001620002d7565b816200024757506000620002d7565b81600181146200026057600281146200026b576200028b565b6001915050620002d7565b60ff8411156200027f576200027f6200031a565b50506001821b620002d7565b5060208310610133831016604e8410600b8410161715620002b0575081810a620002d7565b620002bc8383620001c9565b8060001904821115620002d357620002d36200031a565b0290505b92915050565b600181811c90821680620002f257607f821691505b602082108114156200031457634e487b7160e01b600052602260045260246000fd5b50919050565b634e487b7160e01b600052601160045260246000fd5b61194c80620003406000396000f3fe60806040526004361061011f5760003560e01c8063715018a6116100a0578063b88d4fde11610064578063b88d4fde14610340578063c87b56dd14610360578063ce1ac90814610380578063e985e9c514610393578063f2fde38b146103dc57600080fd5b8063715018a6146102c25780638da5cb5b146102d757806395d89b41146102f55780639f947a5e1461030a578063a22cb4651461032057600080fd5b80632a55205a116100e75780632a55205a146101f557806342842e0e1461023457806351cff8d9146102545780636352211e1461027457806370a082311461029457600080fd5b806301ffc9a71461012457806306fdde0314610159578063081812fc1461017b578063095ea7b3146101b357806323b872dd146101d5575b600080fd5b34801561013057600080fd5b5061014461013f3660046115a3565b6103fc565b60405190151581526020015b60405180910390f35b34801561016557600080fd5b5061016e61044e565b60405161015091906116b0565b34801561018757600080fd5b5061019b6101963660046115dd565b6104e0565b6040516001600160a01b039091168152602001610150565b3480156101bf57600080fd5b506101d36101ce366004611577565b61057a565b005b3480156101e157600080fd5b506101d36101f0366004611423565b610690565b34801561020157600080fd5b506102156102103660046115f6565b6106c1565b604080516001600160a01b039093168352602083019190915201610150565b34801561024057600080fd5b506101d361024f366004611423565b6106fb565b34801561026057600080fd5b506101d361026f3660046113cd565b610716565b34801561028057600080fd5b5061019b61028f3660046115dd565b6107bf565b3480156102a057600080fd5b506102b46102af3660046113cd565b610836565b604051908152602001610150565b3480156102ce57600080fd5b506101d36108bd565b3480156102e357600080fd5b506000546001600160a01b031661019b565b34801561030157600080fd5b5061016e6108f3565b34801561031657600080fd5b506102b460095481565b34801561032c57600080fd5b506101d361033b366004611544565b610902565b34801561034c57600080fd5b506101d361035b366004611464565b6109c7565b34801561036c57600080fd5b5061016e61037b3660046115dd565b6109ff565b6101d361038e3660046113cd565b610af6565b34801561039f57600080fd5b506101446103ae3660046113ea565b6001600160a01b03918216600090815260066020908152604080832093909416825291909152205460ff1690565b3480156103e857600080fd5b506101d36103f73660046113cd565b610ba5565b60006001600160e01b031982166380ac58cd60e01b148061042d57506001600160e01b03198216635b5e139f60e01b145b8061044857506301ffc9a760e01b6001600160e01b03198316145b92915050565b60606001805461045d90611829565b80601f016020809104026020016040519081016040528092919081815260200182805461048990611829565b80156104d65780601f106104ab576101008083540402835291602001916104d6565b820191906000526020600020905b8154815290600101906020018083116104b957829003601f168201915b5050505050905090565b6000818152600360205260408120546001600160a01b031661055e5760405162461bcd60e51b815260206004820152602c60248201527f4552433732313a20617070726f76656420717565727920666f72206e6f6e657860448201526b34b9ba32b73a103a37b5b2b760a11b60648201526084015b60405180910390fd5b506000908152600560205260409020546001600160a01b031690565b6000610585826107bf565b9050806001600160a01b0316836001600160a01b031614156105f35760405162461bcd60e51b815260206004820152602160248201527f4552433732313a20617070726f76616c20746f2063757272656e74206f776e656044820152603960f91b6064820152608401610555565b336001600160a01b038216148061060f575061060f81336103ae565b6106815760405162461bcd60e51b815260206004820152603860248201527f4552433732313a20617070726f76652063616c6c6572206973206e6f74206f7760448201527f6e6572206e6f7220617070726f76656420666f7220616c6c00000000000000006064820152608401610555565b61068b8383610c3d565b505050565b61069a3382610cab565b6106b65760405162461bcd60e51b81526004016105559061174a565b61068b838383610da2565b60008061270f8411156106d357600080fd5b6000612710600954856106e691906117c7565b6106f091906117b3565b915091509250929050565b61068b838383604051806020016040528060008152506109c7565b6000546001600160a01b031633146107405760405162461bcd60e51b815260040161055590611715565b60405147906001600160a01b0383169082156108fc029083906000818181858888f19350505050158015610778573d6000803e3d6000fd5b50604080516001600160a01b0384168152602081018390527f6fb24f3ad0678f9d138e80b17293be051d87911eb34e9e60f0d1b9c3805e885a910160405180910390a15050565b6000818152600360205260408120546001600160a01b0316806104485760405162461bcd60e51b815260206004820152602960248201527f4552433732313a206f776e657220717565727920666f72206e6f6e657869737460448201526832b73a103a37b5b2b760b91b6064820152608401610555565b60006001600160a01b0382166108a15760405162461bcd60e51b815260206004820152602a60248201527f4552433732313a2062616c616e636520717565727920666f7220746865207a65604482015269726f206164647265737360b01b6064820152608401610555565b506001600160a01b031660009081526004602052604090205490565b6000546001600160a01b031633146108e75760405162461bcd60e51b815260040161055590611715565b6108f16000610f42565b565b60606002805461045d90611829565b6001600160a01b03821633141561095b5760405162461bcd60e51b815260206004820152601960248201527f4552433732313a20617070726f766520746f2063616c6c6572000000000000006044820152606401610555565b3360008181526006602090815260408083206001600160a01b03871680855290835292819020805460ff191686151590811790915590519081529192917f17307eab39ab6107e8899845ad3d59bd9653f200f220920489ca2b5937696c31910160405180910390a35050565b6109d13383610cab565b6109ed5760405162461bcd60e51b81526004016105559061174a565b6109f984848484610f92565b50505050565b6000818152600360205260409020546060906001600160a01b0316610a7e5760405162461bcd60e51b815260206004820152602f60248201527f4552433732314d657461646174613a2055524920717565727920666f72206e6f60448201526e3732bc34b9ba32b73a103a37b5b2b760891b6064820152608401610555565b6000610aa4604080518082019091526007815266697066733a2f2f60c81b602082015290565b90506000815111610ac45760405180602001604052806000815250610aef565b80610ace84610fc5565b604051602001610adf929190611644565b6040516020818303038152906040525b9392505050565b61270f610b02600a5490565b1115610b0d57600080fd5b6000546001600160a01b03163314610b375760405162461bcd60e51b815260040161055590611715565b610b4981610b44600a5490565b6110c3565b7fc6dfd6a0a99045f84f41204b11ecf1ed769cb601937dd1e3d57501ce760b8bfe610b73600a5490565b610b7c836110e1565b6040805192835260208301919091520160405180910390a1610ba2600a80546001019055565b50565b6000546001600160a01b03163314610bcf5760405162461bcd60e51b815260040161055590611715565b6001600160a01b038116610c345760405162461bcd60e51b815260206004820152602660248201527f4f776e61626c653a206e6577206f776e657220697320746865207a65726f206160448201526564647265737360d01b6064820152608401610555565b610ba281610f42565b600081815260056020526040902080546001600160a01b0319166001600160a01b0384169081179091558190610c72826107bf565b6001600160a01b03167f8c5be1e5ebec7d5bd14f71427d1e84f3dd0314c0f7b2291e5b200ac8c7c3b92560405160405180910390a45050565b6000818152600360205260408120546001600160a01b0316610d245760405162461bcd60e51b815260206004820152602c60248201527f4552433732313a206f70657261746f7220717565727920666f72206e6f6e657860448201526b34b9ba32b73a103a37b5b2b760a11b6064820152608401610555565b6000610d2f836107bf565b9050806001600160a01b0316846001600160a01b03161480610d6a5750836001600160a01b0316610d5f846104e0565b6001600160a01b0316145b80610d9a57506001600160a01b0380821660009081526006602090815260408083209388168352929052205460ff165b949350505050565b826001600160a01b0316610db5826107bf565b6001600160a01b031614610e1d5760405162461bcd60e51b815260206004820152602960248201527f4552433732313a207472616e73666572206f6620746f6b656e2074686174206960448201526839903737ba1037bbb760b91b6064820152608401610555565b6001600160a01b038216610e7f5760405162461bcd60e51b8152602060048201526024808201527f4552433732313a207472616e7366657220746f20746865207a65726f206164646044820152637265737360e01b6064820152608401610555565b610e8a600082610c3d565b6001600160a01b0383166000908152600460205260408120805460019290610eb39084906117e6565b90915550506001600160a01b0382166000908152600460205260408120805460019290610ee190849061179b565b909155505060008181526003602052604080822080546001600160a01b0319166001600160a01b0386811691821790925591518493918716917fddf252ad1be2c89b69c2b068fc378daa952ba7f163c4a11628f55a4df523b3ef91a4505050565b600080546001600160a01b038381166001600160a01b0319831681178455604051919092169283917f8be0079c531659141344cd1fd0a4f28419497f9722a3daafe3b4186f6b6457e09190a35050565b610f9d848484610da2565b610fa98484848461114b565b6109f95760405162461bcd60e51b8152600401610555906116c3565b606081610fe95750506040805180820190915260018152600360fc1b602082015290565b8160005b81156110135780610ffd81611864565b915061100c9050600a836117b3565b9150610fed565b60008167ffffffffffffffff81111561102e5761102e6118d5565b6040519080825280601f01601f191660200182016040528015611058576020820181803683370190505b5090505b8415610d9a5761106d6001836117e6565b915061107a600a8661187f565b61108590603061179b565b60f81b81838151811061109a5761109a6118bf565b60200101906001600160f81b031916908160001a9053506110bc600a866117b3565b945061105c565b6110dd828260405180602001604052806000815250611258565b5050565b6040516bffffffffffffffffffffffff1941606090811b8216602084015244603484015243605484015242607484015283901b166094820152600090819060a8016040516020818303038152906040528051906020012060001c905060085481610aef919061187f565b60006001600160a01b0384163b1561124d57604051630a85bd0160e11b81526001600160a01b0385169063150b7a029061118f903390899088908890600401611673565b602060405180830381600087803b1580156111a957600080fd5b505af19250505080156111d9575060408051601f3d908101601f191682019092526111d6918101906115c0565b60015b611233573d808015611207576040519150601f19603f3d011682016040523d82523d6000602084013e61120c565b606091505b50805161122b5760405162461bcd60e51b8152600401610555906116c3565b805181602001fd5b6001600160e01b031916630a85bd0160e11b149050610d9a565b506001949350505050565b611262838361128b565b61126f600084848461114b565b61068b5760405162461bcd60e51b8152600401610555906116c3565b6001600160a01b0382166112e15760405162461bcd60e51b815260206004820181905260248201527f4552433732313a206d696e7420746f20746865207a65726f20616464726573736044820152606401610555565b6000818152600360205260409020546001600160a01b0316156113465760405162461bcd60e51b815260206004820152601c60248201527f4552433732313a20746f6b656e20616c7265616479206d696e746564000000006044820152606401610555565b6001600160a01b038216600090815260046020526040812080546001929061136f90849061179b565b909155505060008181526003602052604080822080546001600160a01b0319166001600160a01b03861690811790915590518392907fddf252ad1be2c89b69c2b068fc378daa952ba7f163c4a11628f55a4df523b3ef908290a45050565b6000602082840312156113df57600080fd5b8135610aef816118eb565b600080604083850312156113fd57600080fd5b8235611408816118eb565b91506020830135611418816118eb565b809150509250929050565b60008060006060848603121561143857600080fd5b8335611443816118eb565b92506020840135611453816118eb565b929592945050506040919091013590565b6000806000806080858703121561147a57600080fd5b8435611485816118eb565b93506020850135611495816118eb565b925060408501359150606085013567ffffffffffffffff808211156114b957600080fd5b818701915087601f8301126114cd57600080fd5b8135818111156114df576114df6118d5565b604051601f8201601f19908116603f01168101908382118183101715611507576115076118d5565b816040528281528a602084870101111561152057600080fd5b82602086016020830137600060208483010152809550505050505092959194509250565b6000806040838503121561155757600080fd5b8235611562816118eb565b91506020830135801515811461141857600080fd5b6000806040838503121561158a57600080fd5b8235611595816118eb565b946020939093013593505050565b6000602082840312156115b557600080fd5b8135610aef81611900565b6000602082840312156115d257600080fd5b8151610aef81611900565b6000602082840312156115ef57600080fd5b5035919050565b6000806040838503121561160957600080fd5b50508035926020909101359150565b600081518084526116308160208601602086016117fd565b601f01601f19169290920160200192915050565b600083516116568184602088016117fd565b83519083019061166a8183602088016117fd565b01949350505050565b6001600160a01b03858116825284166020820152604081018390526080606082018190526000906116a690830184611618565b9695505050505050565b602081526000610aef6020830184611618565b60208082526032908201527f4552433732313a207472616e7366657220746f206e6f6e20455243373231526560408201527131b2b4bb32b91034b6b83632b6b2b73a32b960711b606082015260800190565b6020808252818101527f4f776e61626c653a2063616c6c6572206973206e6f7420746865206f776e6572604082015260600190565b60208082526031908201527f4552433732313a207472616e736665722063616c6c6572206973206e6f74206f6040820152701ddb995c881b9bdc88185c1c1c9bdd9959607a1b606082015260800190565b600082198211156117ae576117ae611893565b500190565b6000826117c2576117c26118a9565b500490565b60008160001904831182151516156117e1576117e1611893565b500290565b6000828210156117f8576117f8611893565b500390565b60005b83811015611818578181015183820152602001611800565b838111156109f95750506000910152565b600181811c9082168061183d57607f821691505b6020821081141561185e57634e487b7160e01b600052602260045260246000fd5b50919050565b600060001982141561187857611878611893565b5060010190565b60008261188e5761188e6118a9565b500690565b634e487b7160e01b600052601160045260246000fd5b634e487b7160e01b600052601260045260246000fd5b634e487b7160e01b600052603260045260246000fd5b634e487b7160e01b600052604160045260246000fd5b6001600160a01b0381168114610ba257600080fd5b6001600160e01b031981168114610ba257600080fdfea2646970667358221220a3e70e5b7df8b9e1f66a90200ce5969041964f0bba9f8eee8e3d18e0cec9a7d364736f6c63430008070033",
    "sourcePath": "c:/Traditionerative_Art_ERC721_Project/contracts/TraditionerativeArtFactory.sol",
    "compiler": {
        "name": "solc",
        "version": "0.8.7+commit.e28d00a7"
    },
    "functionHashes": {
        "approve(address,uint256)": "095ea7b3",
        "balanceOf(address)": "70a08231",
        "bp()": "9f947a5e",
        "getApproved(uint256)": "081812fc",
        "isApprovedForAll(address,address)": "e985e9c5",
        "name()": "06fdde03",
        "owner()": "8da5cb5b",
        "ownerOf(uint256)": "6352211e",
        "renounceOwnership()": "715018a6",
        "royaltyInfo(uint256,uint256)": "2a55205a",
        "safeMintTga(address)": "ce1ac908",
        "safeTransferFrom(address,address,uint256)": "42842e0e",
        "safeTransferFrom(address,address,uint256,bytes)": "b88d4fde",
        "setApprovalForAll(address,bool)": "a22cb465",
        "supportsInterface(bytes4)": "01ffc9a7",
        "symbol()": "95d89b41",
        "tokenURI(uint256)": "c87b56dd",
        "transferFrom(address,address,uint256)": "23b872dd",
        "transferOwnership(address)": "f2fde38b",
        "withdraw(address)": "51cff8d9"
    },
    "gasEstimates": {
        "creation": {
            "codeDepositCost": "1295200",
            "executionCost": "infinite",
            "totalCost": "infinite"
        },
        "external": {
            "approve(address,uint256)": "infinite",
            "balanceOf(address)": "2694",
            "bp()": "2384",
            "getApproved(uint256)": "4760",
            "isApprovedForAll(address,address)": "infinite",
            "name()": "infinite",
            "owner()": "2376",
            "ownerOf(uint256)": "2645",
            "renounceOwnership()": "28137",
            "royaltyInfo(uint256,uint256)": "2688",
            "safeMintTga(address)": "infinite",
            "safeTransferFrom(address,address,uint256)": "infinite",
            "safeTransferFrom(address,address,uint256,bytes)": "infinite",
            "setApprovalForAll(address,bool)": "26733",
            "supportsInterface(bytes4)": "534",
            "symbol()": "infinite",
            "tokenURI(uint256)": "infinite",
            "transferFrom(address,address,uint256)": "infinite",
            "transferOwnership(address)": "infinite",
            "withdraw(address)": "infinite"
        },
        "internal": {
            "_baseURI()": "infinite",
            "_generateRandomDna(address)": "infinite"
        }
    }
}