{
  "contractName": "TraditionerativeArt",
  "abi": [
    {
      "inputs": [],
      "stateMutability": "nonpayable",
      "type": "constructor"
    },
    {
      "anonymous": false,
      "inputs": [
        {
          "indexed": true,
          "internalType": "address",
          "name": "owner",
          "type": "address"
        },
        {
          "indexed": true,
          "internalType": "address",
          "name": "approved",
          "type": "address"
        },
        {
          "indexed": true,
          "internalType": "uint256",
          "name": "tokenId",
          "type": "uint256"
        }
      ],
      "name": "Approval",
      "type": "event"
    },
    {
      "anonymous": false,
      "inputs": [
        {
          "indexed": true,
          "internalType": "address",
          "name": "owner",
          "type": "address"
        },
        {
          "indexed": true,
          "internalType": "address",
          "name": "operator",
          "type": "address"
        },
        {
          "indexed": false,
          "internalType": "bool",
          "name": "approved",
          "type": "bool"
        }
      ],
      "name": "ApprovalForAll",
      "type": "event"
    },
    {
      "anonymous": false,
      "inputs": [
        {
          "indexed": false,
          "internalType": "uint256",
          "name": "tgaId",
          "type": "uint256"
        },
        {
          "indexed": false,
          "internalType": "uint256",
          "name": "dna",
          "type": "uint256"
        }
      ],
      "name": "NewTgaMinted",
      "type": "event"
    },
    {
      "anonymous": false,
      "inputs": [
        {
          "indexed": true,
          "internalType": "address",
          "name": "previousOwner",
          "type": "address"
        },
        {
          "indexed": true,
          "internalType": "address",
          "name": "newOwner",
          "type": "address"
        }
      ],
      "name": "OwnershipTransferred",
      "type": "event"
    },
    {
      "anonymous": false,
      "inputs": [
        {
          "indexed": true,
          "internalType": "address",
          "name": "from",
          "type": "address"
        },
        {
          "indexed": true,
          "internalType": "address",
          "name": "to",
          "type": "address"
        },
        {
          "indexed": true,
          "internalType": "uint256",
          "name": "tokenId",
          "type": "uint256"
        }
      ],
      "name": "Transfer",
      "type": "event"
    },
    {
      "anonymous": false,
      "inputs": [
        {
          "indexed": false,
          "internalType": "address",
          "name": "_address",
          "type": "address"
        },
        {
          "indexed": false,
          "internalType": "uint256",
          "name": "amount",
          "type": "uint256"
        }
      ],
      "name": "Withdrawn",
      "type": "event"
    },
    {
      "inputs": [
        {
          "internalType": "address",
          "name": "to",
          "type": "address"
        },
        {
          "internalType": "uint256",
          "name": "tokenId",
          "type": "uint256"
        }
      ],
      "name": "approve",
      "outputs": [],
      "stateMutability": "nonpayable",
      "type": "function"
    },
    {
      "inputs": [
        {
          "internalType": "address",
          "name": "owner",
          "type": "address"
        }
      ],
      "name": "balanceOf",
      "outputs": [
        {
          "internalType": "uint256",
          "name": "",
          "type": "uint256"
        }
      ],
      "stateMutability": "view",
      "type": "function"
    },
    {
      "inputs": [
        {
          "internalType": "uint256",
          "name": "tokenId",
          "type": "uint256"
        }
      ],
      "name": "getApproved",
      "outputs": [
        {
          "internalType": "address",
          "name": "",
          "type": "address"
        }
      ],
      "stateMutability": "view",
      "type": "function"
    },
    {
      "inputs": [
        {
          "internalType": "address",
          "name": "owner",
          "type": "address"
        },
        {
          "internalType": "address",
          "name": "operator",
          "type": "address"
        }
      ],
      "name": "isApprovedForAll",
      "outputs": [
        {
          "internalType": "bool",
          "name": "",
          "type": "bool"
        }
      ],
      "stateMutability": "view",
      "type": "function"
    },
    {
      "inputs": [],
      "name": "name",
      "outputs": [
        {
          "internalType": "string",
          "name": "",
          "type": "string"
        }
      ],
      "stateMutability": "view",
      "type": "function"
    },
    {
      "inputs": [],
      "name": "owner",
      "outputs": [
        {
          "internalType": "address",
          "name": "",
          "type": "address"
        }
      ],
      "stateMutability": "view",
      "type": "function"
    },
    {
      "inputs": [
        {
          "internalType": "uint256",
          "name": "tokenId",
          "type": "uint256"
        }
      ],
      "name": "ownerOf",
      "outputs": [
        {
          "internalType": "address",
          "name": "",
          "type": "address"
        }
      ],
      "stateMutability": "view",
      "type": "function"
    },
    {
      "inputs": [],
      "name": "renounceOwnership",
      "outputs": [],
      "stateMutability": "nonpayable",
      "type": "function"
    },
    {
      "inputs": [
        {
          "internalType": "address",
          "name": "from",
          "type": "address"
        },
        {
          "internalType": "address",
          "name": "to",
          "type": "address"
        },
        {
          "internalType": "uint256",
          "name": "tokenId",
          "type": "uint256"
        }
      ],
      "name": "safeTransferFrom",
      "outputs": [],
      "stateMutability": "nonpayable",
      "type": "function"
    },
    {
      "inputs": [
        {
          "internalType": "address",
          "name": "from",
          "type": "address"
        },
        {
          "internalType": "address",
          "name": "to",
          "type": "address"
        },
        {
          "internalType": "uint256",
          "name": "tokenId",
          "type": "uint256"
        },
        {
          "internalType": "bytes",
          "name": "_data",
          "type": "bytes"
        }
      ],
      "name": "safeTransferFrom",
      "outputs": [],
      "stateMutability": "nonpayable",
      "type": "function"
    },
    {
      "inputs": [
        {
          "internalType": "address",
          "name": "operator",
          "type": "address"
        },
        {
          "internalType": "bool",
          "name": "approved",
          "type": "bool"
        }
      ],
      "name": "setApprovalForAll",
      "outputs": [],
      "stateMutability": "nonpayable",
      "type": "function"
    },
    {
      "inputs": [],
      "name": "symbol",
      "outputs": [
        {
          "internalType": "string",
          "name": "",
          "type": "string"
        }
      ],
      "stateMutability": "view",
      "type": "function"
    },
    {
      "inputs": [
        {
          "internalType": "uint256",
          "name": "tokenId",
          "type": "uint256"
        }
      ],
      "name": "tokenURI",
      "outputs": [
        {
          "internalType": "string",
          "name": "",
          "type": "string"
        }
      ],
      "stateMutability": "view",
      "type": "function"
    },
    {
      "inputs": [
        {
          "internalType": "address",
          "name": "from",
          "type": "address"
        },
        {
          "internalType": "address",
          "name": "to",
          "type": "address"
        },
        {
          "internalType": "uint256",
          "name": "tokenId",
          "type": "uint256"
        }
      ],
      "name": "transferFrom",
      "outputs": [],
      "stateMutability": "nonpayable",
      "type": "function"
    },
    {
      "inputs": [
        {
          "internalType": "address",
          "name": "newOwner",
          "type": "address"
        }
      ],
      "name": "transferOwnership",
      "outputs": [],
      "stateMutability": "nonpayable",
      "type": "function"
    },
    {
      "inputs": [
        {
          "internalType": "bytes4",
          "name": "interfaceId",
          "type": "bytes4"
        }
      ],
      "name": "supportsInterface",
      "outputs": [
        {
          "internalType": "bool",
          "name": "",
          "type": "bool"
        }
      ],
      "stateMutability": "view",
      "type": "function"
    },
    {
      "inputs": [
        {
          "internalType": "address payable",
          "name": "_address",
          "type": "address"
        }
      ],
      "name": "withdraw",
      "outputs": [],
      "stateMutability": "nonpayable",
      "type": "function"
    },
    {
      "inputs": [
        {
          "internalType": "address",
          "name": "_to",
          "type": "address"
        }
      ],
      "name": "safeMintTga",
      "outputs": [],
      "stateMutability": "payable",
      "type": "function"
    },
    {
      "inputs": [
        {
          "internalType": "uint256",
          "name": "tokenId",
          "type": "uint256"
        },
        {
          "internalType": "uint256",
          "name": "salePrice",
          "type": "uint256"
        }
      ],
      "name": "royaltyInfo",
      "outputs": [
        {
          "internalType": "address",
          "name": "receiver",
          "type": "address"
        },
        {
          "internalType": "uint256",
          "name": "royaltyAmount",
          "type": "uint256"
        }
      ],
      "stateMutability": "view",
      "type": "function"
    }
  ],
  "bytecode": "0x60806040523480156200001157600080fd5b506040518060400160405280601381526020017f547261646974696f6e65726174697665417274000000000000000000000000008152506040518060400160405280600381526020017f54474100000000000000000000000000000000000000000000000000000000008152506200009e62000092620000d860201b60201c565b620000e060201b60201c565b8160019080519060200190620000b6929190620001a4565b508060029080519060200190620000cf929190620001a4565b505050620002b9565b600033905090565b60008060009054906101000a900473ffffffffffffffffffffffffffffffffffffffff169050816000806101000a81548173ffffffffffffffffffffffffffffffffffffffff021916908373ffffffffffffffffffffffffffffffffffffffff1602179055508173ffffffffffffffffffffffffffffffffffffffff168173ffffffffffffffffffffffffffffffffffffffff167f8be0079c531659141344cd1fd0a4f28419497f9722a3daafe3b4186f6b6457e060405160405180910390a35050565b828054620001b29062000254565b90600052602060002090601f016020900481019282620001d6576000855562000222565b82601f10620001f157805160ff191683800117855562000222565b8280016001018555821562000222579182015b828111156200022157825182559160200191906001019062000204565b5b50905062000231919062000235565b5090565b5b808211156200025057600081600090555060010162000236565b5090565b600060028204905060018216806200026d57607f821691505b602082108114156200028457620002836200028a565b5b50919050565b7f4e487b7100000000000000000000000000000000000000000000000000000000600052602260045260246000fd5b61339b80620002c96000396000f3fe6080604052600436106101145760003560e01c806370a08231116100a0578063b88d4fde11610064578063b88d4fde146103b0578063c87b56dd146103d9578063ce1ac90814610416578063e985e9c514610432578063f2fde38b1461046f57610114565b806370a08231146102dd578063715018a61461031a5780638da5cb5b1461033157806395d89b411461035c578063a22cb4651461038757610114565b806323b872dd116100e757806323b872dd146101e75780632a55205a1461021057806342842e0e1461024e57806351cff8d9146102775780636352211e146102a057610114565b806301ffc9a71461011957806306fdde0314610156578063081812fc14610181578063095ea7b3146101be575b600080fd5b34801561012557600080fd5b50610140600480360381019061013b9190612095565b610498565b60405161014d9190612614565b60405180910390f35b34801561016257600080fd5b5061016b610512565b604051610178919061262f565b60405180910390f35b34801561018d57600080fd5b506101a860048036038101906101a391906120ef565b6105a4565b6040516101b5919061255b565b60405180910390f35b3480156101ca57600080fd5b506101e560048036038101906101e09190612055565b610629565b005b3480156101f357600080fd5b5061020e60048036038101906102099190611f3f565b610741565b005b34801561021c57600080fd5b506102376004803603810190610232919061211c565b6107a1565b6040516102459291906125eb565b60405180910390f35b34801561025a57600080fd5b5061027560048036038101906102709190611f3f565b610814565b005b34801561028357600080fd5b5061029e60048036038101906102999190611ed2565b610834565b005b3480156102ac57600080fd5b506102c760048036038101906102c291906120ef565b610939565b6040516102d4919061255b565b60405180910390f35b3480156102e957600080fd5b5061030460048036038101906102ff9190611ea5565b6109eb565b60405161031191906128b1565b60405180910390f35b34801561032657600080fd5b5061032f610aa3565b005b34801561033d57600080fd5b50610346610b2b565b604051610353919061255b565b60405180910390f35b34801561036857600080fd5b50610371610b54565b60405161037e919061262f565b60405180910390f35b34801561039357600080fd5b506103ae60048036038101906103a99190612015565b610be6565b005b3480156103bc57600080fd5b506103d760048036038101906103d29190611f92565b610d67565b005b3480156103e557600080fd5b5061040060048036038101906103fb91906120ef565b610dc9565b60405161040d919061262f565b60405180910390f35b610430600480360381019061042b9190611ea5565b610e70565b005b34801561043e57600080fd5b5061045960048036038101906104549190611eff565b610f74565b6040516104669190612614565b60405180910390f35b34801561047b57600080fd5b5061049660048036038101906104919190611ea5565b611008565b005b60007f2a55205a000000000000000000000000000000000000000000000000000000007bffffffffffffffffffffffffffffffffffffffffffffffffffffffff1916827bffffffffffffffffffffffffffffffffffffffffffffffffffffffff1916148061050b575061050a82611100565b5b9050919050565b60606001805461052190612bc3565b80601f016020809104026020016040519081016040528092919081815260200182805461054d90612bc3565b801561059a5780601f1061056f5761010080835404028352916020019161059a565b820191906000526020600020905b81548152906001019060200180831161057d57829003601f168201915b5050505050905090565b60006105af826111e2565b6105ee576040517f08c379a00000000000000000000000000000000000000000000000000000000081526004016105e5906127b1565b60405180910390fd5b6005600083815260200190815260200160002060009054906101000a900473ffffffffffffffffffffffffffffffffffffffff169050919050565b600061063482610939565b90508073ffffffffffffffffffffffffffffffffffffffff168373ffffffffffffffffffffffffffffffffffffffff1614156106a5576040517f08c379a000000000000000000000000000000000000000000000000000000000815260040161069c90612831565b60405180910390fd5b8073ffffffffffffffffffffffffffffffffffffffff166106c461124e565b73ffffffffffffffffffffffffffffffffffffffff1614806106f357506106f2816106ed61124e565b610f74565b5b610732576040517f08c379a000000000000000000000000000000000000000000000000000000000815260040161072990612731565b60405180910390fd5b61073c8383611256565b505050565b61075261074c61124e565b8261130f565b610791576040517f08c379a000000000000000000000000000000000000000000000000000000000815260040161078890612851565b60405180910390fd5b61079c8383836113ed565b505050565b6000806107ad846111e2565b6107ec576040517f08c379a00000000000000000000000000000000000000000000000000000000081526004016107e390612891565b60405180910390fd5b60006127106101f4856107ff9190612a15565b61080991906129e4565b915091509250929050565b61082f83838360405180602001604052806000815250610d67565b505050565b61083c61124e565b73ffffffffffffffffffffffffffffffffffffffff1661085a610b2b565b73ffffffffffffffffffffffffffffffffffffffff16146108b0576040517f08c379a00000000000000000000000000000000000000000000000000000000081526004016108a7906127d1565b60405180910390fd5b60004790508173ffffffffffffffffffffffffffffffffffffffff166108fc829081150290604051600060405180830381858888f193505050501580156108fb573d6000803e3d6000fd5b507f7084f5476618d8e60b11ef0d7d3f06914655adb8793e28ff7f018d4c76d505d5828260405161092d929190612576565b60405180910390a15050565b6000806003600084815260200190815260200160002060009054906101000a900473ffffffffffffffffffffffffffffffffffffffff169050600073ffffffffffffffffffffffffffffffffffffffff168173ffffffffffffffffffffffffffffffffffffffff1614156109e2576040517f08c379a00000000000000000000000000000000000000000000000000000000081526004016109d990612771565b60405180910390fd5b80915050919050565b60008073ffffffffffffffffffffffffffffffffffffffff168273ffffffffffffffffffffffffffffffffffffffff161415610a5c576040517f08c379a0000000000000000000000000000000000000000000000000000000008152600401610a5390612751565b60405180910390fd5b600460008373ffffffffffffffffffffffffffffffffffffffff1673ffffffffffffffffffffffffffffffffffffffff168152602001908152602001600020549050919050565b610aab61124e565b73ffffffffffffffffffffffffffffffffffffffff16610ac9610b2b565b73ffffffffffffffffffffffffffffffffffffffff1614610b1f576040517f08c379a0000000000000000000000000000000000000000000000000000000008152600401610b16906127d1565b60405180910390fd5b610b296000611649565b565b60008060009054906101000a900473ffffffffffffffffffffffffffffffffffffffff16905090565b606060028054610b6390612bc3565b80601f0160208091040260200160405190810160405280929190818152602001828054610b8f90612bc3565b8015610bdc5780601f10610bb157610100808354040283529160200191610bdc565b820191906000526020600020905b815481529060010190602001808311610bbf57829003601f168201915b5050505050905090565b610bee61124e565b73ffffffffffffffffffffffffffffffffffffffff168273ffffffffffffffffffffffffffffffffffffffff161415610c5c576040517f08c379a0000000000000000000000000000000000000000000000000000000008152600401610c53906126d1565b60405180910390fd5b8060066000610c6961124e565b73ffffffffffffffffffffffffffffffffffffffff1673ffffffffffffffffffffffffffffffffffffffff16815260200190815260200160002060008473ffffffffffffffffffffffffffffffffffffffff1673ffffffffffffffffffffffffffffffffffffffff16815260200190815260200160002060006101000a81548160ff0219169083151502179055508173ffffffffffffffffffffffffffffffffffffffff16610d1661124e565b73ffffffffffffffffffffffffffffffffffffffff167f17307eab39ab6107e8899845ad3d59bd9653f200f220920489ca2b5937696c3183604051610d5b9190612614565b60405180910390a35050565b610d78610d7261124e565b8361130f565b610db7576040517f08c379a0000000000000000000000000000000000000000000000000000000008152600401610dae90612851565b60405180910390fd5b610dc38484848461170d565b50505050565b6060610dd4826111e2565b610e13576040517f08c379a0000000000000000000000000000000000000000000000000000000008152600401610e0a90612811565b60405180910390fd5b6000610e1d611769565b90506000815111610e3d5760405180602001604052806000815250610e68565b80610e4784611789565b604051602001610e589291906124fa565b6040516020818303038152906040525b915050919050565b61270f610e7d60076118ea565b1115610ebe576040517f08c379a0000000000000000000000000000000000000000000000000000000008152600401610eb590612871565b60405180910390fd5b662386f26fc10000341015610f08576040517f08c379a0000000000000000000000000000000000000000000000000000000008152600401610eff906126f1565b60405180910390fd5b6000610f1460076118ea565b9050610f26828263ffffffff166118f8565b7ff1afec6493d86754881731021a7b9f8e23e615fd827e3fc2e59011579241dbb781610f50611916565b604051610f5e9291906128cc565b60405180910390a1610f70600761195f565b5050565b6000600660008473ffffffffffffffffffffffffffffffffffffffff1673ffffffffffffffffffffffffffffffffffffffff16815260200190815260200160002060008373ffffffffffffffffffffffffffffffffffffffff1673ffffffffffffffffffffffffffffffffffffffff16815260200190815260200160002060009054906101000a900460ff16905092915050565b61101061124e565b73ffffffffffffffffffffffffffffffffffffffff1661102e610b2b565b73ffffffffffffffffffffffffffffffffffffffff1614611084576040517f08c379a000000000000000000000000000000000000000000000000000000000815260040161107b906127d1565b60405180910390fd5b600073ffffffffffffffffffffffffffffffffffffffff168173ffffffffffffffffffffffffffffffffffffffff1614156110f4576040517f08c379a00000000000000000000000000000000000000000000000000000000081526004016110eb90612671565b60405180910390fd5b6110fd81611649565b50565b60007f80ac58cd000000000000000000000000000000000000000000000000000000007bffffffffffffffffffffffffffffffffffffffffffffffffffffffff1916827bffffffffffffffffffffffffffffffffffffffffffffffffffffffff191614806111cb57507f5b5e139f000000000000000000000000000000000000000000000000000000007bffffffffffffffffffffffffffffffffffffffffffffffffffffffff1916827bffffffffffffffffffffffffffffffffffffffffffffffffffffffff1916145b806111db57506111da82611975565b5b9050919050565b60008073ffffffffffffffffffffffffffffffffffffffff166003600084815260200190815260200160002060009054906101000a900473ffffffffffffffffffffffffffffffffffffffff1673ffffffffffffffffffffffffffffffffffffffff1614159050919050565b600033905090565b816005600083815260200190815260200160002060006101000a81548173ffffffffffffffffffffffffffffffffffffffff021916908373ffffffffffffffffffffffffffffffffffffffff160217905550808273ffffffffffffffffffffffffffffffffffffffff166112c983610939565b73ffffffffffffffffffffffffffffffffffffffff167f8c5be1e5ebec7d5bd14f71427d1e84f3dd0314c0f7b2291e5b200ac8c7c3b92560405160405180910390a45050565b600061131a826111e2565b611359576040517f08c379a000000000000000000000000000000000000000000000000000000000815260040161135090612711565b60405180910390fd5b600061136483610939565b90508073ffffffffffffffffffffffffffffffffffffffff168473ffffffffffffffffffffffffffffffffffffffff1614806113d357508373ffffffffffffffffffffffffffffffffffffffff166113bb846105a4565b73ffffffffffffffffffffffffffffffffffffffff16145b806113e457506113e38185610f74565b5b91505092915050565b8273ffffffffffffffffffffffffffffffffffffffff1661140d82610939565b73ffffffffffffffffffffffffffffffffffffffff1614611463576040517f08c379a000000000000000000000000000000000000000000000000000000000815260040161145a906127f1565b60405180910390fd5b600073ffffffffffffffffffffffffffffffffffffffff168273ffffffffffffffffffffffffffffffffffffffff1614156114d3576040517f08c379a00000000000000000000000000000000000000000000000000000000081526004016114ca906126b1565b60405180910390fd5b6114de8383836119df565b6114e9600082611256565b6001600460008573ffffffffffffffffffffffffffffffffffffffff1673ffffffffffffffffffffffffffffffffffffffff16815260200190815260200160002060008282546115399190612a6f565b925050819055506001600460008473ffffffffffffffffffffffffffffffffffffffff1673ffffffffffffffffffffffffffffffffffffffff1681526020019081526020016000206000828254611590919061298e565b92505081905550816003600083815260200190815260200160002060006101000a81548173ffffffffffffffffffffffffffffffffffffffff021916908373ffffffffffffffffffffffffffffffffffffffff160217905550808273ffffffffffffffffffffffffffffffffffffffff168473ffffffffffffffffffffffffffffffffffffffff167fddf252ad1be2c89b69c2b068fc378daa952ba7f163c4a11628f55a4df523b3ef60405160405180910390a4505050565b60008060009054906101000a900473ffffffffffffffffffffffffffffffffffffffff169050816000806101000a81548173ffffffffffffffffffffffffffffffffffffffff021916908373ffffffffffffffffffffffffffffffffffffffff1602179055508173ffffffffffffffffffffffffffffffffffffffff168173ffffffffffffffffffffffffffffffffffffffff167f8be0079c531659141344cd1fd0a4f28419497f9722a3daafe3b4186f6b6457e060405160405180910390a35050565b6117188484846113ed565b611724848484846119e4565b611763576040517f08c379a000000000000000000000000000000000000000000000000000000000815260040161175a90612651565b60405180910390fd5b50505050565b60606040518060600160405280603f8152602001613327603f9139905090565b606060008214156117d1576040518060400160405280600181526020017f300000000000000000000000000000000000000000000000000000000000000081525090506118e5565b600082905060005b600082146118035780806117ec90612c26565b915050600a826117fc91906129e4565b91506117d9565b60008167ffffffffffffffff81111561181f5761181e612d66565b5b6040519080825280601f01601f1916602001820160405280156118515781602001600182028036833780820191505090505b5090505b600085146118de5760018261186a9190612a6f565b9150600a856118799190612c79565b6030611885919061298e565b60f81b81838151811061189b5761189a612d37565b5b60200101907effffffffffffffffffffffffffffffffffffffffffffffffffffffffffffff1916908160001a905350600a856118d791906129e4565b9450611855565b8093505050505b919050565b600081600001549050919050565b611912828260405180602001604052806000815250611b7b565b5050565b60008044434260405160200161192e9392919061251e565b6040516020818303038152906040528051906020012060001c90506305f5e100816119599190612c79565b91505090565b6001816000016000828254019250508190555050565b60007f01ffc9a7000000000000000000000000000000000000000000000000000000007bffffffffffffffffffffffffffffffffffffffffffffffffffffffff1916827bffffffffffffffffffffffffffffffffffffffffffffffffffffffff1916149050919050565b505050565b6000611a058473ffffffffffffffffffffffffffffffffffffffff16611bd6565b15611b6e578373ffffffffffffffffffffffffffffffffffffffff1663150b7a02611a2e61124e565b8786866040518563ffffffff1660e01b8152600401611a50949392919061259f565b602060405180830381600087803b158015611a6a57600080fd5b505af1925050508015611a9b57506040513d601f19601f82011682018060405250810190611a9891906120c2565b60015b611b1e573d8060008114611acb576040519150601f19603f3d011682016040523d82523d6000602084013e611ad0565b606091505b50600081511415611b16576040517f08c379a0000000000000000000000000000000000000000000000000000000008152600401611b0d90612651565b60405180910390fd5b805181602001fd5b63150b7a0260e01b7bffffffffffffffffffffffffffffffffffffffffffffffffffffffff1916817bffffffffffffffffffffffffffffffffffffffffffffffffffffffff191614915050611b73565b600190505b949350505050565b611b858383611be9565b611b9260008484846119e4565b611bd1576040517f08c379a0000000000000000000000000000000000000000000000000000000008152600401611bc890612651565b60405180910390fd5b505050565b600080823b905060008111915050919050565b600073ffffffffffffffffffffffffffffffffffffffff168273ffffffffffffffffffffffffffffffffffffffff161415611c59576040517f08c379a0000000000000000000000000000000000000000000000000000000008152600401611c5090612791565b60405180910390fd5b611c62816111e2565b15611ca2576040517f08c379a0000000000000000000000000000000000000000000000000000000008152600401611c9990612691565b60405180910390fd5b611cae600083836119df565b6001600460008473ffffffffffffffffffffffffffffffffffffffff1673ffffffffffffffffffffffffffffffffffffffff1681526020019081526020016000206000828254611cfe919061298e565b92505081905550816003600083815260200190815260200160002060006101000a81548173ffffffffffffffffffffffffffffffffffffffff021916908373ffffffffffffffffffffffffffffffffffffffff160217905550808273ffffffffffffffffffffffffffffffffffffffff16600073ffffffffffffffffffffffffffffffffffffffff167fddf252ad1be2c89b69c2b068fc378daa952ba7f163c4a11628f55a4df523b3ef60405160405180910390a45050565b6000611dca611dc58461291a565b6128f5565b905082815260208101848484011115611de657611de5612d9a565b5b611df1848285612b81565b509392505050565b600081359050611e08816132b3565b92915050565b600081359050611e1d816132ca565b92915050565b600081359050611e32816132e1565b92915050565b600081359050611e47816132f8565b92915050565b600081519050611e5c816132f8565b92915050565b600082601f830112611e7757611e76612d95565b5b8135611e87848260208601611db7565b91505092915050565b600081359050611e9f8161330f565b92915050565b600060208284031215611ebb57611eba612da4565b5b6000611ec984828501611df9565b91505092915050565b600060208284031215611ee857611ee7612da4565b5b6000611ef684828501611e0e565b91505092915050565b60008060408385031215611f1657611f15612da4565b5b6000611f2485828601611df9565b9250506020611f3585828601611df9565b9150509250929050565b600080600060608486031215611f5857611f57612da4565b5b6000611f6686828701611df9565b9350506020611f7786828701611df9565b9250506040611f8886828701611e90565b9150509250925092565b60008060008060808587031215611fac57611fab612da4565b5b6000611fba87828801611df9565b9450506020611fcb87828801611df9565b9350506040611fdc87828801611e90565b925050606085013567ffffffffffffffff811115611ffd57611ffc612d9f565b5b61200987828801611e62565b91505092959194509250565b6000806040838503121561202c5761202b612da4565b5b600061203a85828601611df9565b925050602061204b85828601611e23565b9150509250929050565b6000806040838503121561206c5761206b612da4565b5b600061207a85828601611df9565b925050602061208b85828601611e90565b9150509250929050565b6000602082840312156120ab576120aa612da4565b5b60006120b984828501611e38565b91505092915050565b6000602082840312156120d8576120d7612da4565b5b60006120e684828501611e4d565b91505092915050565b60006020828403121561210557612104612da4565b5b600061211384828501611e90565b91505092915050565b6000806040838503121561213357612132612da4565b5b600061214185828601611e90565b925050602061215285828601611e90565b9150509250929050565b61216581612b39565b82525050565b61217481612aa3565b82525050565b61218381612ac7565b82525050565b60006121948261294b565b61219e8185612961565b93506121ae818560208601612b90565b6121b781612da9565b840191505092915050565b60006121cd82612956565b6121d78185612972565b93506121e7818560208601612b90565b6121f081612da9565b840191505092915050565b600061220682612956565b6122108185612983565b9350612220818560208601612b90565b80840191505092915050565b6000612239603283612972565b915061224482612dba565b604082019050919050565b600061225c602683612972565b915061226782612e09565b604082019050919050565b600061227f601c83612972565b915061228a82612e58565b602082019050919050565b60006122a2602483612972565b91506122ad82612e81565b604082019050919050565b60006122c5601983612972565b91506122d082612ed0565b602082019050919050565b60006122e8601f83612972565b91506122f382612ef9565b602082019050919050565b600061230b602c83612972565b915061231682612f22565b604082019050919050565b600061232e603883612972565b915061233982612f71565b604082019050919050565b6000612351602a83612972565b915061235c82612fc0565b604082019050919050565b6000612374602983612972565b915061237f8261300f565b604082019050919050565b6000612397602083612972565b91506123a28261305e565b602082019050919050565b60006123ba602c83612972565b91506123c582613087565b604082019050919050565b60006123dd602083612972565b91506123e8826130d6565b602082019050919050565b6000612400602983612972565b915061240b826130ff565b604082019050919050565b6000612423602f83612972565b915061242e8261314e565b604082019050919050565b6000612446602183612972565b91506124518261319d565b604082019050919050565b6000612469603183612972565b9150612474826131ec565b604082019050919050565b600061248c601783612972565b91506124978261323b565b602082019050919050565b60006124af603a83612972565b91506124ba82613264565b604082019050919050565b6124ce81612b1f565b82525050565b6124e56124e082612b1f565b612c6f565b82525050565b6124f481612b6f565b82525050565b600061250682856121fb565b915061251282846121fb565b91508190509392505050565b600061252a82866124d4565b60208201915061253a82856124d4565b60208201915061254a82846124d4565b602082019150819050949350505050565b6000602082019050612570600083018461216b565b92915050565b600060408201905061258b600083018561215c565b61259860208301846124c5565b9392505050565b60006080820190506125b4600083018761216b565b6125c1602083018661216b565b6125ce60408301856124c5565b81810360608301526125e08184612189565b905095945050505050565b6000604082019050612600600083018561216b565b61260d60208301846124c5565b9392505050565b6000602082019050612629600083018461217a565b92915050565b6000602082019050818103600083015261264981846121c2565b905092915050565b6000602082019050818103600083015261266a8161222c565b9050919050565b6000602082019050818103600083015261268a8161224f565b9050919050565b600060208201905081810360008301526126aa81612272565b9050919050565b600060208201905081810360008301526126ca81612295565b9050919050565b600060208201905081810360008301526126ea816122b8565b9050919050565b6000602082019050818103600083015261270a816122db565b9050919050565b6000602082019050818103600083015261272a816122fe565b9050919050565b6000602082019050818103600083015261274a81612321565b9050919050565b6000602082019050818103600083015261276a81612344565b9050919050565b6000602082019050818103600083015261278a81612367565b9050919050565b600060208201905081810360008301526127aa8161238a565b9050919050565b600060208201905081810360008301526127ca816123ad565b9050919050565b600060208201905081810360008301526127ea816123d0565b9050919050565b6000602082019050818103600083015261280a816123f3565b9050919050565b6000602082019050818103600083015261282a81612416565b9050919050565b6000602082019050818103600083015261284a81612439565b9050919050565b6000602082019050818103600083015261286a8161245c565b9050919050565b6000602082019050818103600083015261288a8161247f565b9050919050565b600060208201905081810360008301526128aa816124a2565b9050919050565b60006020820190506128c660008301846124c5565b92915050565b60006040820190506128e160008301856124eb565b6128ee60208301846124eb565b9392505050565b60006128ff612910565b905061290b8282612bf5565b919050565b6000604051905090565b600067ffffffffffffffff82111561293557612934612d66565b5b61293e82612da9565b9050602081019050919050565b600081519050919050565b600081519050919050565b600082825260208201905092915050565b600082825260208201905092915050565b600081905092915050565b600061299982612b1f565b91506129a483612b1f565b9250827fffffffffffffffffffffffffffffffffffffffffffffffffffffffffffffffff038211156129d9576129d8612caa565b5b828201905092915050565b60006129ef82612b1f565b91506129fa83612b1f565b925082612a0a57612a09612cd9565b5b828204905092915050565b6000612a2082612b1f565b9150612a2b83612b1f565b9250817fffffffffffffffffffffffffffffffffffffffffffffffffffffffffffffffff0483118215151615612a6457612a63612caa565b5b828202905092915050565b6000612a7a82612b1f565b9150612a8583612b1f565b925082821015612a9857612a97612caa565b5b828203905092915050565b6000612aae82612aff565b9050919050565b6000612ac082612aff565b9050919050565b60008115159050919050565b60007fffffffff0000000000000000000000000000000000000000000000000000000082169050919050565b600073ffffffffffffffffffffffffffffffffffffffff82169050919050565b6000819050919050565b600063ffffffff82169050919050565b6000612b4482612b4b565b9050919050565b6000612b5682612b5d565b9050919050565b6000612b6882612aff565b9050919050565b6000612b7a82612b29565b9050919050565b82818337600083830152505050565b60005b83811015612bae578082015181840152602081019050612b93565b83811115612bbd576000848401525b50505050565b60006002820490506001821680612bdb57607f821691505b60208210811415612bef57612bee612d08565b5b50919050565b612bfe82612da9565b810181811067ffffffffffffffff82111715612c1d57612c1c612d66565b5b80604052505050565b6000612c3182612b1f565b91507fffffffffffffffffffffffffffffffffffffffffffffffffffffffffffffffff821415612c6457612c63612caa565b5b600182019050919050565b6000819050919050565b6000612c8482612b1f565b9150612c8f83612b1f565b925082612c9f57612c9e612cd9565b5b828206905092915050565b7f4e487b7100000000000000000000000000000000000000000000000000000000600052601160045260246000fd5b7f4e487b7100000000000000000000000000000000000000000000000000000000600052601260045260246000fd5b7f4e487b7100000000000000000000000000000000000000000000000000000000600052602260045260246000fd5b7f4e487b7100000000000000000000000000000000000000000000000000000000600052603260045260246000fd5b7f4e487b7100000000000000000000000000000000000000000000000000000000600052604160045260246000fd5b600080fd5b600080fd5b600080fd5b600080fd5b6000601f19601f8301169050919050565b7f4552433732313a207472616e7366657220746f206e6f6e20455243373231526560008201527f63656976657220696d706c656d656e7465720000000000000000000000000000602082015250565b7f4f776e61626c653a206e6577206f776e657220697320746865207a65726f206160008201527f6464726573730000000000000000000000000000000000000000000000000000602082015250565b7f4552433732313a20746f6b656e20616c7265616479206d696e74656400000000600082015250565b7f4552433732313a207472616e7366657220746f20746865207a65726f2061646460008201527f7265737300000000000000000000000000000000000000000000000000000000602082015250565b7f4552433732313a20617070726f766520746f2063616c6c657200000000000000600082015250565b7f45746865722076616c75652073656e74206973206e6f7420636f727265637400600082015250565b7f4552433732313a206f70657261746f7220717565727920666f72206e6f6e657860008201527f697374656e7420746f6b656e0000000000000000000000000000000000000000602082015250565b7f4552433732313a20617070726f76652063616c6c6572206973206e6f74206f7760008201527f6e6572206e6f7220617070726f76656420666f7220616c6c0000000000000000602082015250565b7f4552433732313a2062616c616e636520717565727920666f7220746865207a6560008201527f726f206164647265737300000000000000000000000000000000000000000000602082015250565b7f4552433732313a206f776e657220717565727920666f72206e6f6e657869737460008201527f656e7420746f6b656e0000000000000000000000000000000000000000000000602082015250565b7f4552433732313a206d696e7420746f20746865207a65726f2061646472657373600082015250565b7f4552433732313a20617070726f76656420717565727920666f72206e6f6e657860008201527f697374656e7420746f6b656e0000000000000000000000000000000000000000602082015250565b7f4f776e61626c653a2063616c6c6572206973206e6f7420746865206f776e6572600082015250565b7f4552433732313a207472616e73666572206f6620746f6b656e2074686174206960008201527f73206e6f74206f776e0000000000000000000000000000000000000000000000602082015250565b7f4552433732314d657461646174613a2055524920717565727920666f72206e6f60008201527f6e6578697374656e7420746f6b656e0000000000000000000000000000000000602082015250565b7f4552433732313a20617070726f76616c20746f2063757272656e74206f776e6560008201527f7200000000000000000000000000000000000000000000000000000000000000602082015250565b7f4552433732313a207472616e736665722063616c6c6572206973206e6f74206f60008201527f776e6572206e6f7220617070726f766564000000000000000000000000000000602082015250565b7f4e6f206d6f726520746f6b656e73206176616c69626c65000000000000000000600082015250565b7f45524332393831526f79616c74795374616e646172643a20526f79616c74792060008201527f696e666f20666f72206e6f6e6578697374656e7420746f6b656e000000000000602082015250565b6132bc81612aa3565b81146132c757600080fd5b50565b6132d381612ab5565b81146132de57600080fd5b50565b6132ea81612ac7565b81146132f557600080fd5b50565b61330181612ad3565b811461330c57600080fd5b50565b61331881612b1f565b811461332357600080fd5b5056fe697066733a2f2f516d51344a4d753565506a3839417868537a6e734d796b6e5a486f57636856794c545a54703138546255556134782f6d657461646174612fa2646970667358221220d23037d118650f01acccf3c1b2939324f5c8fe0b2d35a625d63c7f6b5c82902464736f6c63430008070033",
  "immutableReferences": {},
  "source": "// SPDX-License-Identifier: MIT\r\npragma solidity ^0.8.0;\r\n\r\nimport \"@openzeppelin/contracts/access/Ownable.sol\";\r\nimport \"@openzeppelin/contracts/utils/Counters.sol\";\r\nimport \"@openzeppelin/contracts/interfaces/IERC2981.sol\";\r\nimport \"@openzeppelin/contracts/token/ERC721/ERC721.sol\";\r\n\r\n/**\r\n * @author Roi Di Segni (aka Sheeeev66)\r\n * @dev tga - Tradition(al Gen)erative Art\r\n */\r\n\r\ncontract TraditionerativeArt is Ownable, ERC721, IERC2981 {\r\n\r\n    using Counters for Counters.Counter;\r\n\r\n    event NewTgaMinted(uint tgaId, uint dna);\r\n    event Withdrawn(address _address, uint amount);\r\n    \r\n    // track token ID\r\n    Counters.Counter private _tokenId;\r\n\r\n    constructor() ERC721(\"TraditionerativeArt\", \"TGA\") { }\r\n\r\n\r\n    function supportsInterface(bytes4 interfaceId) public view override(ERC721, IERC165) returns (bool) {\r\n        return\r\n            interfaceId == type(IERC2981).interfaceId ||\r\n            super.supportsInterface(interfaceId);\r\n    }\r\n\r\n\r\n    /**\r\n     * @dev withdraw contract balance to a wallet\r\n     * @dev won't execute if it isn't the owner who is executing the command\r\n     * @param _address the address to withdraw to\r\n     */\r\n    function withdraw(address payable _address) public onlyOwner {\r\n        uint contractBal = address(this).balance;\r\n        _address.transfer(contractBal);\r\n        emit Withdrawn(_address, contractBal);\r\n    }\r\n\r\n    /**\r\n     * @dev setting base URI\r\n     */\r\n    function _baseURI() internal pure override returns (string memory) {\r\n        return \"ipfs://QmQ4JMu5ePj89AxhSznsMyknZHoWchVyLTZTp18TbUUa4x/metadata/\";\r\n    }\r\n\r\n    /**\r\n     * @dev miniting the token\r\n     * @dev makes sure that no more than 10K tokens are minted\r\n    m* @param _to address to mint to\r\n     */\r\n    function safeMintTga(address _to) public payable {\r\n        require(_tokenId.current() <= 9999, \"No more tokens avalible\");\r\n        require(msg.value >= 0.01 ether, \"Ether value sent is not correct\");\r\n\r\n        uint32 id = uint32(_tokenId.current());\r\n\r\n        _safeMint(_to, id);\r\n\r\n        emit NewTgaMinted(id, _generateRandomDna());\r\n        _tokenId.increment();\r\n    }\r\n    \r\n    /**\r\n     * @dev Generates random number for the DNA by using the timestamp, block difficulty and the block number.\r\n     * @return random DNA\r\n     */\r\n    function _generateRandomDna() private view returns (uint32) {\r\n        uint rand = uint(keccak256(abi.encodePacked(block.difficulty, block.number, block.timestamp)));\r\n        return uint32(rand %  /* DNA modulus: 10 in the power of \"dna digits\" (in this case: 8) */ (10 ** 8) );\r\n    }\r\n\r\n    /**\r\n     * @dev Royalty info for the exchange to read (using EIP-2981 royalty standard)\r\n     * @dev This is to provide the NFTs utility. NFT that burns ether and as a result makes its value increase.\r\n     * @param tokenId the token Id \r\n     * @param salePrice the price the NFT was sold for\r\n     * @dev return: send 5% royalty to address 0SS\r\n     */\r\n    function royaltyInfo(uint256 tokenId, uint256 salePrice) external view override returns (address receiver, uint256 royaltyAmount) {\r\n        require(_exists(tokenId), \"ERC2981RoyaltyStandard: Royalty info for nonexistent token\");\r\n        return (address(0), salePrice * 500 /*percentage in basis points (5%)*/ / 10000);\r\n    }\r\n    \r\n\r\n\r\n}\r\n",
  "sourcePath": "C:\\Traditionerative_Art_ERC721_Project\\contracts\\TraditionerativeArt.sol",
  "compiler": {
    "name": "solc",
    "version": "0.8.7+commit.e28d00a7.Emscripten.clang"
  },
  "schemaVersion": "3.4.3",
  "updatedAt": "2021-09-05T05:20:52.039Z",
  "devdoc": {
    "author": "Roi Di Segni (aka Sheeeev66)",
    "details": "tga - Tradition(al Gen)erative Art",
    "kind": "dev",
    "methods": {
      "approve(address,uint256)": {
        "details": "See {IERC721-approve}."
      },
      "balanceOf(address)": {
        "details": "See {IERC721-balanceOf}."
      },
      "getApproved(uint256)": {
        "details": "See {IERC721-getApproved}."
      },
      "isApprovedForAll(address,address)": {
        "details": "See {IERC721-isApprovedForAll}."
      },
      "name()": {
        "details": "See {IERC721Metadata-name}."
      },
      "owner()": {
        "details": "Returns the address of the current owner."
      },
      "ownerOf(uint256)": {
        "details": "See {IERC721-ownerOf}."
      },
      "renounceOwnership()": {
        "details": "Leaves the contract without owner. It will not be possible to call `onlyOwner` functions anymore. Can only be called by the current owner. NOTE: Renouncing ownership will leave the contract without an owner, thereby removing any functionality that is only available to the owner."
      },
      "royaltyInfo(uint256,uint256)": {
        "details": "Royalty info for the exchange to read (using EIP-2981 royalty standard)This is to provide the NFTs utility. NFT that burns ether and as a result makes its value increase.return: send 5% royalty to address 0SS",
        "params": {
          "salePrice": "the price the NFT was sold for",
          "tokenId": "the token Id "
        }
      },
      "safeMintTga(address)": {
        "details": "miniting the tokenmakes sure that no more than 10K tokens are minted",
        "params": {
          "_to": "address to mint to"
        }
      },
      "safeTransferFrom(address,address,uint256)": {
        "details": "See {IERC721-safeTransferFrom}."
      },
      "safeTransferFrom(address,address,uint256,bytes)": {
        "details": "See {IERC721-safeTransferFrom}."
      },
      "setApprovalForAll(address,bool)": {
        "details": "See {IERC721-setApprovalForAll}."
      },
      "symbol()": {
        "details": "See {IERC721Metadata-symbol}."
      },
      "tokenURI(uint256)": {
        "details": "See {IERC721Metadata-tokenURI}."
      },
      "transferFrom(address,address,uint256)": {
        "details": "See {IERC721-transferFrom}."
      },
      "transferOwnership(address)": {
        "details": "Transfers ownership of the contract to a new account (`newOwner`). Can only be called by the current owner."
      },
      "withdraw(address)": {
        "details": "withdraw contract balance to a walletwon't execute if it isn't the owner who is executing the command",
        "params": {
          "_address": "the address to withdraw to"
        }
      }
    },
    "version": 1
  },
  "userdoc": {
    "kind": "user",
    "methods": {},
    "version": 1
  }
}